:020000040000FA
:0600000085EF18F012006C
:0600080004EF08F01200F5
:060018000CEF08F01200DD
:0610000085EF18F012005C
:0610080027EF0EF01200BC
:0610180029EF0EF01200AA
:02102A000000C4
:04102C0052EC0DF085
:10103000FB0EDBCFF3FFDB06F35000090AE0A0EC68
:101040000DF0FA0E0BEC0EF0F3E1151CF1E1010EC0
:1010500001D0000E81EF0DF052EC0DF03B0EE124BB
:1010600002E3E168E652E16E010EDB6A020EDB6A22
:10107000F90EDBCFF6FFFA0EDBCFF7FFFB0EDBCF6F
:10108000F8FF0800F550DF6EDF5002E1A5EF0CF02D
:10109000250EDF5C02E098EF0CF0030EDB6A040E15
:1010A000DB6A050EDB6A060EDB6A070EDB6ABAEC4A
:1010B0000CF02D0EDF5C0CE02B0EDF5C09E0200E47
:1010C000DF5C06E0230EDF5C03E0300EDF5C1AE13C
:1010D000DF50300A14E0130A0FE0030A0AE00B0A9B
:1010E00005E0060AE4E1030EDB80E1D7030EDB82B4
:1010F000DED7030EDB84DBD7030EDB86D8D7030EE7
:10110000DB88D5D72A0EDF5C1BE1B6EC0CF004ECD3
:101110000DF010E0030EDB8006680768130EDBCFCE
:101120000DF0140EDBCF0EF048EC17F0040E04C0E7
:10113000DBFF03D0130EEDEC0CF0BAEC0CF00BD08F
:10114000090EDB6A5BEC0DF003E0CFEC0DF0FAD793
:10115000090EEDEC0CF0030EDBB0DB982E0EDF5C1D
:101160001BE1BAEC0CF02A0EDF5C0BE1B6EC0CF0E4
:1011700004EC0DF003E1130E3FEC0DF0BAEC0CF0B3
:101180000BD0090EDB6A5BEC0DF003E0CFEC0DF049
:10119000FAD7090E3FEC0DF0680EDF5C07E1BAEC00
:1011A0000CF0680EDF5C1DE1030E18D0740EDF5CDE
:1011B00017E07A0EDF5C14E0480EDF5C06E0540EA8
:1011C000DF5C03E05A0EDF5C02E1020E07D06C0E1A
:1011D000DF5C03E06A0EDF5C04E1010E92EC0DF0CF
:1011E000C9DBDF506E0A01E17FD31E0A01E192D113
:1011F000200A01E18FD13F0A01E149D11A0A01E138
:1012000046D10D0A01E143D1200A01E140D13A0A59
:1012100001E13DD1200A01E13AD1260A01E135D1AF
:101220000D0A01E132D11A0A01E1D9D0200A4AE0BF
:10123000300A1FE0460A0EE0250A01E083D3D950A8
:10124000F90FE96EFF0EDA20EA6E010EEE5E000E77
:10125000EE5AEE5AA0EC0DF0250EE66E95DB03E19A
:10126000151C01E169D39CEC0DF001E26BD3DB2A84
:1012700069D3080EDB6A040EDB50010806E2040E97
:10128000DB0464EC0DF0DB508BDB080EDB5009E077
:10129000030EDB50010B05E172DB01E04DD3080EBC
:1012A000DB6A64DBEFCFDFFF14EC0EF003E1151C0B
:1012B00001E142D39CEC0DF001E3DB2A60DB01E1AC
:1012C00041D33AD3070EDB5002080FE1E0EC0DF0FA
:1012D000030EA7EC0DF00E0EEECFDBFF0F0EEECFE0
:1012E000DBFF100EEECFDBFF20D0F70EDBCF17F0C9
:1012F000F80EDBCF18F0020E175E000E185AF70E2C
:1013000017C0DBFFF80E18C0DBFF17C0E9FF18C0DD
:10131000EAFF97EC0DF0166A0E0E14C0DBFF0F0EFD
:1013200015C0DBFF100E16C0DBFF0E0EDBCFE6FF95
:101330000F0EDBCFE6FF100EDBCFE6FF18EC16F04A
:10134000E552E552E552130E05C0DBFF140E06C050
:10135000DBFF060EDB5005E0130EDBEC0DF001E2C7
:101360006ADBFFEC0DF002E2130E37DBC2EC0DF08E
:1013700006E0040EDBEC0DF002E2050E2EDB030EA0
:10138000DBB005D0FCDA01E0D7D2080EDB6A090E2B
:10139000DB6A0E0EDBCFF6FF0F0EDBCFF7FF100E72
:1013A000DBCFF8FF0800F550DF6EDF5014E005ECEE
:1013B0000EF011E214EC0EF003E1151C01E1BCD2B9
:1013C000BBDB01E3DB2A090EDB2AD9500E0FE96EE5
:1013D000000ECBDBE7D7D3DA01E1B4D2ADD2C6DA67
:1013E000110EEECFDBFF120EEDCFDBFF110EDBCFC8
:1013F000E6FF120EDBCFE6FF0AEC16F0E552E552EF
:10140000130EF3CFDBFF140EF4CFDBFF060EDB5021
:1014100004E0130ED0DB01E20EDBFFEC0DF002E284
:10142000130EDBDAAFDB05E0040EC5DB02E2050ECE
:10143000D4DA030EDBB005D0A2DA01E07DD2080ECB
:10144000DB6A090EDB6A110EDBCFE9FF120EDBCF80
:10145000EAFFEFCFDFFFDF5014E0D7DB12E2E4DB7F
:1014600003E1151C01E168D267DB01E3DB2A090E09
:10147000DB2A110EDB2ADBCFE9FF120EE8E3DB2AC1
:10148000E6D77DDA01E15ED257D2030EDB8E070E7E
:10149000DB0410E195DB040E5ADB0A0EEECFDBFF16
:1014A0000B0EEECFDBFF0C0EEECFDBFF0D0EEECF03
:1014B000DBFF6CD0070EDB5003082CE1030EDBAE24
:1014C0000DD0B2DA020E76DAEFCF14F0156A166A92
:1014D000176A14AE39D01568166835D0F70EDBCF11
:1014E00015F0F80EDBCF16F0020E155E000E165A40
:1014F000F70E15C0DBFFF80E16C0DBFF15C0E9FFC5
:1015000016C0EAFFEFCF14F00A0E14C0DBFF0B0E7B
:10151000DB6A38D0070EDB50020809E1030EDBAEB0
:1015200004D059DB16AE10D00ED055DB0DD0030E13
:10153000DBAE12D079DA020E3DDAF9DA166A176AF2
:1015400015AE02D016681768E2DA0C0E16C0DBFF83
:101550000D0E17C0DBFF1AD0F70EDBCF16F0F80E1A
:10156000DBCF17F0020E165E000E175AF70E16C0EC
:10157000DBFFF80E17C0DBFF16C0E9FF17C0EAFF5C
:10158000D6DAC5DA0C0EDB6A0D0EDB6A060EDB500E
:1015900005E1010EF36E050EF3CFDBFF150EDB6ADE
:1015A000160EDB6AD950370F146E000EDA20156E56
:1015B000390E14C0DBFF3A0E15C0DBFF380EDB6AB4
:1015C000080EDB6A0A0EAEDADF50780A12E0200A53
:1015D00010E0280A0CE0200A0AE03F0A06E00D0AA3
:1015E00002E0200A08E1020E05D0080E03D0080E22
:1015F000DF26100E97DA030EDBBE02D0DB92DB94FF
:10160000DB50800B24E08ADAD890030EEB50000AFE
:1016100008E6000EEE5C000EEE58000EEE58000ECE
:10162000EE5815E213DA0B680C680D680E6810ECC2
:1016300017F00A0E00C0DBFF0B0E01C0DBFF0C0E23
:1016400002C0DBFF0D0E03C0DBFF2D0E08D0030E22
:10165000DBA202D02B0E03D0DBA408D0200EF36E49
:10166000170EF3CFDBFF150EDB2A02D0170EDB6A55
:10167000050EDB5003E1B7D901E189D0580E146E95
:10168000310E156E000E166E070EDBCF17F0186ABE
:10169000196A1A6A17C00BF018C00CF019C00DF0C7
:1016A0001AC00EF0D3D99BEC17F014500024F36E3F
:1016B00015500120F46E16500220F86EF4CFF7FF9B
:1016C000F3CFF6FF0800090EF5CFDBFF580EDF5C05
:1016D0000FE1610EF36E090E7BD90AE3200E146E42
:1016E000090EDBCFE7FF1450E75E090EE7CFDBFF03
:1016F000070EDBCF14F0156A166A176A0FDA14C0EA
:101700000BF015C00CF016C00DF017C00EF0EECFA8
:1017100004F0EECF05F0EECF06F0EFCF07F09BEC34
:1017200017F007C0EDFF06C0EDFF05C0EDFF04C0D8
:10173000EFFF390EDBCFE9FFDB063A0EDBCFEAFF26
:1017400001E2DB06090EDBCFEFFF150EDB2A4BD9DA
:1017500095E1030EDBA61DD06F0EDF5C06E1C1D95B
:1017600018E3150EDB285BDA14D0780EDF5C09E095
:10177000580EDF5C06E0620EDF5C03E0420EDF5CC9
:1017800008E1020EF36E160EF3CFDBFF02D0150E4A
:10179000DB6A030EDB50100B0EE0040EDBCF14F0FF
:1017A000050EDB50D880145406E2060EDB5003E130
:1017B000040EDB5034DA95D90AE2050EDBCFE7FFE1
:1017C000150EDB50E75E050EE7CFDBFF02D0050EFE
:1017D000DB6A040EDBCF14F0160E45D9D880145402
:1017E00014E2160EDBCFE6FF150EDBCFE6FF040E8C
:1017F000DBCFE6FF050EDB50E552E75CE552D88013
:10180000E754E552D880E7545FD9030EDB50010B53
:101810000BE1080EDB5008E0B2D801E08DD0080ED5
:10182000DB50BED8080EDB6A170EDB5007E088D904
:10183000170EF1D903E1151C01E17ED0160EDB5025
:1018400016E07ED9300EE66E9FD802E1151C74E0DA
:1018500077D9DFCFE6FFCEEC16F0E552E552E55240
:10186000F4CF15F00001F31C02E1151C65E0050E34
:10187000DBCF14F0160EDB50D880145409E2050EAD
:10188000DBCFE7FF160EDB50E75E050EE7CFDBFF91
:10189000300EE66E050ECBD94FE1390EDB2ADBCFD9
:1018A000E9FF3A0E01E3DB2ADBCFEAFF090EEFCFB7
:1018B000DBFFDB500EE044D9090EADD902E1151C67
:1018C0003BE0390EDB2ADBCFE9FF3A0EEDE3DB2A02
:1018D000EBD755D831E1160EDBCFE6FF080EC3D8A3
:1018E000E552E7245DD82ED0070EDB50030A1CE03A
:1018F000010A14E0030A07E07BD9DBCFEEFF020EFA
:10190000DBCFEDFF1FD0F5D8196A17AE02D01868EB
:1019100019682CD8BCD819C0EEFF14D0EAD817BE6D
:10192000186824D8B4D80ED063D9DBCFEFFF0AD023
:101930007BD905E1151C03E1F368F46810D0FCD8ED
:1019400001E3DB2A79D941EF08F0010EDBCF14F077
:10195000020EDBCF15F014C0F3FF15C0F4FF3B0EF1
:10196000E15C02E2E16AE552E16ECBD029D9020ED8
:10197000A7EF0DF061D90800F550DF6E1200200EC0
:10198000E66E080E17EF0EF0CEEC16F0E552E552BB
:10199000E552F3CF14F0F4CF15F00001F31C120060
:1019A000146E156AD950010F4DD91450EE261550FA
:1019B000ED221200185E000E195AF70E18C0DBFF58
:1019C000F80E19C0DBFF18C0E9FF19C0EAFF1200CA
:1019D000DBCFF4FFF350F45C1200DB50E76E040E33
:1019E000E7CFDBFF12000A0EDBCF14F00B0EDBCFCC
:1019F00015F00C0EDBCF16F00D0EDBCF17F01450E8
:101A00001510161017101200130EEECFDBFF140E78
:101A1000EDCFDBFF130EDBCF14F0140EDBCF15F090
:101A20000001800E15141200F70EDBCF18F0F80E2F
:101A3000DBCF19F01200050EDB50E66ED950130F04
:101A400001D9E552E750EE6EED6A12000A0EDBCFC7
:101A500004F00B0EDBCF05F00C0EDBCF06F00D0E05
:101A6000DBCF07F01200DBCFE6FF150EDBCFE6FF82
:101A7000050EDB50E552E724E552E7241200DB5067
:101A8000CED8010EF36E060EF3CFDBFF1200EE5040
:101A9000EFCFEAFFE96E16C0EEFF17C0EEFF18C0E9
:101AA000EEFF1200D9CFE6FFDACFE6FFE1CFD9FF94
:101AB000E2CFDAFF1200DFCFE6FFE66A63EC18F050
:101AC000E552E552F3501200E76E080EE7CFDBFF58
:101AD0001200EECF14F0EECF15F0EFCF16F0176A2C
:101AE0001200050EDBCF14F0150EDB50D880145415
:101AF0001200010EDBCF16F0020EDBCF17F0186AD2
:101B00001200E552E5CFDAFFE7CFD9FF12000A0E47
:101B100014C0DBFF0B0E15C0DBFF1200D9500A0FFB
:101B200022EF0EF0F36E070EF3CFDBFF1200EECFC5
:101B300014F0EFCF15F01200010EDB2A020E120096
:101B4000FC0EDBCFE6FFFD0EDBCFE6FF1200145EDE
:101B5000000E155AF70E14C0DBFFF80E15C0DBFFA0
:101B600014C0E9FF15C0EAFF1200DA20EA6EEF2A7E
:101B7000EECFF6FF000EEF22EECFF7FFEF22EECF13
:101B8000F8FF1200040EDBCFE6FF130EDB50E55228
:101B9000E75C9ADFDB5004DF060EDB501200090E13
:101BA000DB500A0DF350DF24D00FE76E090EE7CFAC
:101BB000DBFFBAEF0CF0DB50F36E050EE8EF0CF034
:101BC000F70EDBCF14F0F80EDBCF15F01200DFCFED
:101BD000E6FFC4EF0CF028DF030EECDE69EF0DF03A
:101BE00016EC08F0E552E552E552E5520009120004
:101BF000BDDEEE50EFCFEAFFE96E010E1200130ECC
:101C0000DB50F36E040EE8EF0CF0040EDB50F36EC5
:101C1000090EE8EF0CF0DBCFE6FFC4EF0CF0E76E47
:101C2000050EE7CFDBFF12008BDFE7EF0DF0DBCF18
:101C3000E6FF86DFF0EF0DF0D950F90FE96EFF0EE9
:0E1C4000B5EF0DF0E96E000EDA20EA6E12002C
:021C4E00D5DBE4
:101C50001100D8CFE4FFE0CFE4FFE46ECEDBE55027
:101C6000E5CFE0FFE5CFD8FF100002D834D8FED78B
:101C70000F0EC1129298929A9386938892908098B0
:101C8000809A8090850ED56EFD0ECD6E9E0ECA6E2A
:101C90004D0EE66EE66A2C0EE66E89EC16F0E55205
:101CA000E552E5523DEC12F0E66A020EE66E000ED9
:101CB000E66E060E9ADBE66A010EE66E000EE66E32
:101CC000020E93DB100EE66E5DEC14F0E55200019F
:101CD000010EE06F120080988090CBD8E6D8C6D96C
:101CE00072EF0EF03DDB1A0EE1269EAABBD0180E55
:101CF000DB6A190EDB6A57DBDF5001E1B3D0100E4F
:101D0000DB6AD950020F146E62DBD9500E0FE96EF8
:101D1000DACFEAFF600EEE6E000EED6E140EDB6A97
:101D2000150EDB6A120EDB6A130EDB6A110EDB6A1C
:101D3000010EDB6ADF50F36E010EDBCFF4FFF350D0
:101D4000F45C01E381D07ADB0D0803E077DB0A085D
:101D500026E1D950140FE96EDACFEAFF000ED880E1
:101D6000EE54000EED5401E37DD00FDB0CE1175073
:101D7000151809E159DB14BE156867DAED0E186E07
:101D80002C0EA8DA5BD01BDB01E3DB2A74DADACF96
:101D900015F01DDBCFDAE552E5526FD963D0100E96
:101DA000DB5014E14BDB48080BE048DB4C0808E053
:101DB0003BDB14BE156849DABF0E186E2C0E3AD004
:101DC000010EF36E100EF3CFDBFF3BD0100EDB04E1
:101DD00038E134DB2C0815E1100EDB6AD6DA0BE1B2
:101DE0001750151808E120DB14BE15682EDAED0E29
:101DF000186E2C0E1FD0E3DA01E3DB2A3CDAE7DAB7
:101E000020D0300E146E1ADBD88014540CE316DB8D
:101E1000390809E313DBE66ED2DA01E3DB2AE55287
:101E2000E750EF6E0ED000DB14BE15680EDA940E8C
:101E3000186E2C0E4FDAE552E5527CDAE552E55287
:101E400011D0010EDB2A76D7DF50146E156AD950F7
:101E5000180FE96EDACFEAFF1450EE261550ED2286
:101E6000A2DA66D71A0EE15C02E2E16AE552E16E9F
:101E70007CD28150E66E72EC14F0E552D1EC14F095
:101E8000100B07E00001E05102E0000E01D0010E4E
:101E9000E06F0001E051E8B0808AE8A0809A9EA23D
:101EA00003D09E92BEEC14F012005ADA080EE1261E
:101EB0000001E05175E081B673D034DAF294020E7D
:101EC000DB6A060EDB6A070EDB6A040EDB6A050EB0
:101ED000DB6A030EDB6A030EDB5053E1020EDB50BC
:101EE00002E0000E01D0010EE8B08088E8A08098E2
:101EF000A8DAF250040B11E1DECF14F0DDCF15F0BB
:101F0000166A1634000E161807E6D880600E1454B0
:101F1000EA0E1554000E16540BE2600EDE6EEA0E49
:101F2000DD6EF294010EF36E030EF3CFDBFF09D0EA
:101F30008150080B01E0010E146E020EDB50145CA0
:101F4000D7E0F0D9D950040F6ADAD950060F67DA12
:101F5000DECFE6FFDDCFE6FF7BDA146E030EDBCFCC
:101F6000E7FF1550E726030EE7CFDBFF020EDB503D
:101F700002E0000E01D0010EE76E020EE7CFDBFF9C
:101F8000AAD78098060EDBCFE6FF070E68DA9AD94B
:101F900007E08A0EE66E2C0EE66E09D8E552E55291
:101FA000080EE15C02E2E16AE552E16EDED1D8D9C9
:101FB000090EE126070EDB6A080EDB6A890EE66E63
:101FC0002C0EE66E28DA0ADA26DA010EF36E020E1D
:101FD0001BDA030EDB6A040EDB6A74D940E0D950C9
:101FE000030FB3D9F3CFDEFFF4CFDDFFD9CFE9FF85
:101FF000DACFEAFFFF0EEE1806E1FF0EED1803E15F
:1020000061D926E12CD0DECFE6FFDDCFE6FF020E60
:10201000DB5002E0480E01D04C0EE66EE66AD95065
:10202000070FFDD9820E146E2C0EA3D90B0E73D997
:10203000020EDB5002E0000E01D0010EE76E020E30
:10204000E7CFDBFF2C0EF36E070EF3CFDBFFC5D718
:102050007F0E146E2C0E8DD9050E5DD933D9090E65
:10206000E15C02E2E16AE552E16E7FD1CBEC14F073
:10207000100B01E112003DEF10F072D9090EE126BC
:1020800051D9F294010EF36E040EBED9070EDB6A2D
:10209000080EDB6AD950070F58D9020EF3CFDBFFC9
:1020A000030EF4CFDBFFD950020FE96EDACFEAFF5F
:1020B000FF0EEE1803E1FF0EED183BE0020EDBCF42
:1020C00014F0030EDBCF15F0166A600E141805E14C
:1020D000EA0E151802E116502CE0040EDB50E8B0B1
:1020E0008088E8A08098040EDB50E8B08080E8A0EB
:1020F00080905BD800D905E28098809061D8FBD8A9
:10210000ECE310D9040EDB5002E0000E01D0010E0A
:10211000E76E040EE7CFDBFFDB50E8B08088E8A075
:102120008098040EDB50E8B08080E8B0B3D7809090
:10213000B1D7780EE66E35EC18F0E55280988090B5
:102140007A0EE66E2C0EE66E66D980988090090EA7
:10215000E15C02E2E16AE552E16E07D101D937D8CC
:10216000F350F41014E0FD0EDBCF14F0FE0EDBCFC5
:1021700015F0166A14C0E6FF15C0E6FF16C0E6FFAC
:1021800058D9F1EC15F0176E050EC5D89BD8EDD0D7
:10219000E7D898D809E022D948D8E552E55217D8AF
:1021A000F4CF15F0F350F410E0D00A0EE66EA1EC77
:1021B00018F0E552000000000000000000001200CE
:1021C000150EE66EA1EC18F0E55200001200000EAC
:1021D000E66EE66AFDEC17F0E552E5529E909EB081
:1021E00005D0ACA2FCD7010EF36E01D0F36AF46AFD
:1021F0001200B6D8E652DF6AFC0EDB50DF5C12E25A
:102200009EAA10D0BFEC17F0E66EDF50DF2AE76E13
:10221000FD0EDBCFE9FFFE0E29D9E552E750EF6E48
:10222000DF2AEAD7DF50E552A0D09AD8D7D875EC8C
:1022300017F0E552E55299D0010EDB50E76E0E0E15
:10224000DBCFE9FF0F0E36EF12F014C0E6FF15C02A
:10225000E6FF010EDB50E76E180EDBCF16F0190E0D
:10226000DBCF17F0E7501626000E172216C0E6FF48
:1022700017C0E6FF1200EF6AD950020FD0D8D7EC92
:1022800014F0E552E552160EF3CFDBFF170EF4CF34
:10229000DBFFD950120FC3D8D950140FC0D8160E77
:1022A000DBCFE6FF170EDBCFE6FFD2D8110EDBCF78
:1022B000E7FF1550E726110EE7CFDBFFD950020FDD
:1022C000146E120084DFF3CF14F0F4CF15F0F35046
:1022D000F4101200196E1A6A18C0E6FFE66E1AC0F2
:1022E000E6FFA7D84CEC15F01B6E090EE15E1B5003
:1022F000A0D8C8EF10F0A5D8DECF14F0DDCF15F0D0
:10230000020EDBCF16F0030EDBCF17F01650145C75
:10231000175015581200E15E17508BD886DFE55232
:10232000E5521200000EE66EE66A19EC18F0E5526E
:10233000E5521200140EDBCFE6FF150E90D8E70E23
:10234000E66E2C0EE66ED7EF0FF069D8D950050F68
:1023500066D861EC12F0E552E552E552E552120002
:10236000D9CFE6FFE1CFD9FF1200E552E7CFD9FF81
:102370001200156E166A14C0E6FFE66E16C0E6FF80
:1023800058D84CEC15F0176E12000C0EDBCF14F081
:102390000D0EDBCF15F0D950020F166EDACF17F005
:1023A000E85014181200400EE66E600EE66E000E45
:1023B000E66E1FDFE552E552E552DF6E12000C0EAD
:1023C000DBCFE9FFDB2A0D0EDBCFEAFF12000C0E9C
:1023D00014C0DBFF0D0EDACFDBFF1200FD0EDBCFEA
:1023E000E6FFFE0EDBCFE6FF1200E66E42EC12F0D7
:1023F000E552E552E552E5521200DACFE4FFE6522B
:10240000E552E5CFDAFF1200F3CFDBFF050EDB6A02
:10241000060EDB6A1200A2DEE552E5521200E66EFD
:10242000000EDA20E66E120007DFEFCF14F0156A17
:102430001200A00EE66E000EE66E1200FDDEEF50FA
:102440001200DEEC17F0F3CFDEFFF4CFDDFF120059
:10245000E0EC12F0156E060EE15E15501200DBCFB7
:10246000E6FF30EC13F0E552E5521200DBCFEAFF55
:0A247000E750E926000EEA221200F0
:06247A000001F56BF66B9A
:10248000F76B12008CD90001F55150D9FD0EDBCF4E
:10249000EEFFFE0EDBCFEDFFF55148D9FFD9FB0E65
:1024A000DBCFEEFFFC0EDBCFEDFFF52BFB0EDBCF22
:1024B00006F0FC0EDBCF07F00650F6270750F72397
:1024C00073D16DD9040EE126D4D9C7D9010E97D99D
:1024D000E1D8E552E552E76E010EE7CFDBFF68D9A0
:1024E000020E14C0DBFF030E17C0DBFF18D9B5D9ED
:1024F000020E1426000E15226ED94DE3020EDBCF1C
:1025000006F0030EDBCF07F0E868061802E1E86882
:10251000071841E0FD0E061802E1E868071820E000
:10252000FE0E061802E1E86807180CE09BD9FE0EC3
:10253000EE1834E1FF0EED1831E1F1D8EE2A000E6D
:10254000EF220AD0B0D995D94CD9FE0EEE6EED68C7
:10255000E6D883D940D91FE3DF50146E156A25D021
:10256000A2D987D9EE2A000EEF22D9D806D9E76E74
:10257000010EE7CFDBFFD3D834D9FD0EEE6EED6848
:10258000DBCFE9FFFE0EDBCFEAFF67D924D903E3F7
:10259000010E0ED90AD0F368F4680BD084D9020E6C
:1025A000DBCF14F0030EDBCF15F014C0F3FF15C022
:1025B000F4FF040EE15C02E2E16AE552E16EF4D060
:1025C000EED8040EE126C1D843D9FED803E3BDD826
:1025D000FE0E02D0BAD8FD0EEE6EED686BD9145027
:1025E000DF1803E11550DE52DD1811E063D90FD971
:1025F00061D9FF0E1416000E1516030E14C0DBFF72
:1026000084D822E19DD8020E80D81EE199D8DCD86A
:1026100004E3FD0E7AD81AE017D0FD0EFE0EDBCFD4
:1026200015F0F5D8FF0EE76EFD0EDBCF14F0FE0EB1
:10263000E7501416156A030E14C0DBFF66D804E1D8
:102640007FD8020E62D802E0010E01D079D8146E54
:10265000040EE15C02E2E16AE552E16E1450A4D09E
:102660009ED8020EE76E78D8E7501426000E152289
:10267000B2D80FE3E668FD0EDBCFE6FFFE0EDBCF40
:10268000E6FF00D9E668010EE76E66D8E750B7D8D6
:10269000F9D88AD084D8C2D8A9D808E207D903E2E9
:1026A000EDD8D6D803D0EAD85ED8F6D7BED802E1A6
:1026B000FF0E03D051D8C0D8EF50146E030EE15C6A
:1026C00002E2E16AE552E16E14506ED068D8A6D8F5
:1026D0008DD808E2EBD803E2D1D8BAD803D0CED84F
:1026E00042D8F6D7A2D802E1010E06D035D8A4D838
:1026F000FC0EDBCFEFFF000E146E030EE15C02E276
:10270000E16AE552E16E14504FD0DBCFE6FFAAD864
:10271000EECFE6FFEFCFE6FFB5D800091200FD0EC1
:10272000DBCFE9FFFE0EDBCFEAFF1200040DF3CF93
:10273000E9FFF4CFEAFFE10EE926000EEA221200DB
:1027400091D8EE2A000EEF221200F90EDBCFE9FF3E
:10275000FA0EDBCFEAFF1200FD0EDBCF14F0FE0E07
:10276000DBCF15F012009AD878D891D81450EE5ECD
:102770001550ED5A020EDB2A1200EECFE6FFEFCF26
:10278000E6FF88DFE552E552120088D8EECF16F05A
:10279000EFCF17F01650145C175015581200D9CF10
:1027A000E6FFE1CFD9FF1200E552E7CFD9FF1200D3
:1027B000DBCF16F016C017F0166ADF5000011610B6
:1027C000146E17C015F0120062D8FF0ED880EE54B8
:1027D000000EED54120000011450F65D1550F7592B
:1027E0001200EE2A000EEF2232EF14F00001F55134
:1027F000F36E020EDBCFF4FFF350F45C12001426EC
:10280000000E152214C0E6FF15C0E6FF120015C029
:1028100014F0156A020E14C0DBFF1200030EE1264D
:10282000DE6ADD6A020EDB6A1200D9CFE9FFDACF79
:10283000EAFFEE50ED101200DE501424E96EDD5078
:102840001520EA6E1200020EEE26000EED22120096
:10285000EECFDEFFEDCFDDFF1200EECF14F0EFCFB5
:1028600015F01200FB0EDBCFE9FFFC0EDBCFEAFF19
:10287000120055DF82DFDF6E8FEF13F0020EDB50A8
:1028800096EF13F023DFE552E552E5521200D950DE
:10289000FD0FE96EFF0EDA20EA6E1200020EE92645
:1028A000000EEA2212003BDF23EF14F055DFE6DFD3
:0A28B000C5EF13F04ADF2DEF14F01E
:0628BA00D9CFE6FFE1CFDB
:1028C000D9FFFE0EDBCF0BF101010A6B0C6B0D6B18
:1028D0000E6B0F6B106B116B126B136BE552E7CF26
:1028E000D9FF1200D9CFE6FFE1CFD9FF030EE126D1
:1028F0000AC1DFFFFE0EDB1C01010B150A6FDF5062
:102900000A19E76E010EE7CFDBFFDB500A150D6FEA
:10291000010EDBCFE6FF0A1DE552E7140C6F0A51EA
:1029200003E1126B136B1CD0880E125D130E13594A
:1029300009E3115105E1010E116F0AC110F114D024
:10294000106B12D0D00E125D070E135909E30F5110
:1029500005E1010E0F6F0AC10EF106D00E6B04D017
:102960000E6B0F6B106B116B030EE15C02E2E16A00
:10297000E552E16EE552E7CFD9FF12000101FF0EEB
:10298000125DFF0E135903E2122B000E13231200E7
:1029900001010A51120001010C51120001010D51F7
:0E29A000120001010E5112000101105112002F
:0229AE00FF0E1A
:1029B000E3CFEAFFE552FF0EE3CFE9FFE552E66A17
:1029C000E66AD9CFE6FFDACFE6FFFC0EE124D96E46
:1029D000FF0EE220DA6EE66AE66AE66A200EEF5C37
:1029E00006E0090EEF5C03E0EF6603D03FD0EE5047
:1029F000F5D72D0EEF5C03E1FF0EE32A03D02B0E7B
:102A0000EF5C01E1EE502F0EEF6424D03A0EEF6040
:102A100021D0D890F90EE336FA0EE336FD0EDECF64
:102A2000E3FFFE0EDDCFE3FFD890F90EE336FA0E9A
:102A3000E336D890F90EE336FA0EE336FD0EE35096
:102A4000DE26FE0EE350DD22300EEE5CDE26000EAA
:102A5000DD22D9D7FF0EE3CFE8FFE85207E0F90EF9
:102A6000E31EE32AFA0ED8B4E306E31EE552E5526C
:102A7000E552FF0EE3CFDAFFE552FF0EE3CFD9FFB9
:102A8000E552E1CFE9FFE2CFEAFFED52ED52EECFA2
:082A9000F3FFEFCFF4FF120089
:082A9800D9CFE6FFDACFE6FF1B
:102AA000E1CFD9FFE2CFDAFFE652E652E652E65234
:102AB000D950F90F146EFF0EDA20156E020E14C0F5
:102AC000DBFF030E15C0DBFF020EDBCFE6FF030EBC
:102AD000DBCFE6FFF90EDBCFE6FFFA0EDBCFE6FF3A
:102AE000FB0EDBCFE6FFD950FC0FE66EFF0EDA20BF
:102AF000E66E2CEC08F0146E070EE15C02E2E16A6F
:102B0000E552E16E1450F3CFDEFFF4CFDDFFFC0E93
:102B1000DBCFE9FFFD0EDBCFEAFFEF6ADECF14F07B
:102B2000DDCF15F014C0F3FF15C0F4FF040EE15C17
:102B300002E2E16AE552E16EE552E5CFDAFFE7CF66
:042B4000D9FF1200A7
:0C2B44002A0EF66E100EF76E000EF86EF2
:102B500001010900F550056F0900F550066F03E10A
:102B6000056701D03DD00900F550006F0900F55010
:102B7000016F0900F550026F09000900F550E96E78
:102B80000900F550EA6E090009000900F550036FCD
:102B90000900F550046F09000900F6CF07F1F7CFDF
:102BA00008F1F8CF09F100C1F6FF01C1F7FF02C13A
:102BB000F8FF0101035302E1045307E00900F55057
:102BC000EE6E0307F8E20407F9D707C1F6FF08C164
:102BD000F7FF09C1F8FF01010507000E065BBFD72B
:022BE0001200E1
:0E2BE200FB0EE3CFF6FFFC0EE3CFF7FFFD0E78
:102BF000E3CFF8FFFE0EE3CFE9FFFF0EE3CFEAFFDE
:102C0000E9CFF3FFEACFF4FF0900F5CFEFFFEE665F
:102C1000FBD71200FE0EE3CFE9FFFF0EE3CFEAFF82
:102C2000F36AF46AEE5203E0F34AF42AFBD7120087
:102C3000FF0EE3CFF8FFE552FF0EE3CFF7FFE552BB
:102C4000FF0EE3CFF6FFE552E66AE66AE66A0900A0
:102C5000F55209E0FD0EE32A05E1FE0EE32A02E14A
:102C6000FF0EE32AF4D7FD0EE3CF05F0FE0EE3CF0F
:0A2C700006F0FF0EE3CF07F012009C
:062C7A004F4B0D0A000D96
:102C80000A00257325632575000072656365697602
:102C900065642C007061727365206572726F722EAC
:102CA000206E65656420272C27206F72206E756D5D
:102CB0006265722E205B25642C25635D0D0A007011
:102CC00061727365206572726F722E206E65656425
:102CD00020274827206F7220274C272E205B256451
:102CE0002C25635D0D0A006563686F2C00706172AE
:102CF0007365206572726F722E206E656564206E3A
:102D0000756D6265722E205B25642C25635D0D0A4E
:012D100000C2
:0E2D1200D9CFE6FFDACFE6FFE1CFD9FFE2CF5F
:102D2000DAFFAC6AAB6AFD0EDBB0AC88DBA202D086
:102D3000AC8CAB8CDBB4AC8EDBA602D0AB8801D004
:102D4000AB8ADBB8AC849E98DBBAAB86DBAC02D036
:102D50009D8A01D09D9A9E9ADBAE02D09D8801D0BB
:102D60009D98FB0EDB50AF6EFB0EFC0EDBCF15F01B
:102D700015C014F0156A1450B06EAC8AAB8E949CDA
:102D8000948EAC50100B04E0AC50800B01E1948C9D
:0C2D9000E552E5CFDAFFE7CFD9FF1200D3
:042D9C00D9CFE6FFA6
:102DA000DACFE6FFE1CFD9FFE2CFDAFFFB0EDBCFD0
:102DB00014F0FC0EDBCF15F00001800E15141AE1A3
:102DC000FB0EDBCFE9FFFC0EDBCFEAFFEECFF3FF1C
:102DD000EDCFF4FFEE2A000EEF22F3CFE9FFF4CFA0
:102DE000EAFFFD0EDBCFEFFFEF50156AF36E15C063
:102DF000F4FF10D0FB0EDB50FE0806E1FD0EDBCF2A
:102E0000E6FF93EC18F005D0FD0EDBCFE6FFB5EC46
:102E100018F0E552E552E5CFDAFFE7CFD9FF12000F
:102E200004500B02F3CF00F0F4CF01F00C02F3508A
:102E30000126000EF420026E04500D02F35002260B
:102E4000000EF420036E04500E02F35003260550CA
:102E50000B02F3500126F4500222000E032205500B
:102E60000C02F3500226F450032205500D02F350D9
:102E7000032606500B02F3500226F450032206509C
:102E80000C02F350032607500B02F35003261200E6
:102E900007C013F006C012F006500D02F4CF05F083
:102EA000F3CF04F007500E02F4CF07F0F3CF06F093
:102EB0000D02F3500526F4500622E86A072212504C
:102EC0000E02F3500526F4500622E86A07220EAEE1
:102ED0006EEF17F01250065E1350075A13AE000C37
:0A2EE0000D50065E0E50075A000C5C
:062EEA00D9CFE6FFDACFAC
:102EF000E6FFE1CFD9FFE2CFDAFFACA2FED7FC0EAE
:102F0000DBCFE9FFFD0EDBCFEAFFEF50E66E4CECC6
:102F100018F0E552FC0EDBCFE9FFDB2AFD0EDBCF1C
:102F2000EAFF01E3DB2AEF50E8E1E552E5CFDAFF03
:062F3000E7CFD9FF1200FB
:0A2F3600036A026A016A006A200EB5
:102F4000E76ED89004360536063607360036013669
:102F5000023603360B50005C0C5001580D500258DD
:102F60000E50035809E30B50005E0C50015A0D50EF
:0E2F7000025A0E50035A042AE72EE4D712002C
:022F7E00D9CFA9
:102F8000E6FFDACFE6FFE1CFD9FFE2CFDAFFE65284
:102F9000F20E0001F817ABAC03D0F891ABB0F8819A
:102FA000ABB4F885ABB2F887AE50DF6EDF50E552B8
:0C2FB000E552E5CFDAFFE7CFD9FF1200B1
:042FBC00D9CFE6FF84
:102FC000DACFE6FFE1CFD9FFE2CFDAFFE652E652F1
:102FD000D650DF6E010ED7CFDBFFDECF14F0DDCF92
:102FE00015F014C0F3FF15C0F4FFE552E552E552A9
:0A2FF000E5CFDAFFE7CFD9FF1200AA
:062FFA00D9CFE6FFDACF9B
:10300000E6FFE1CFD9FFE2CFDAFFE652E652FC0E4F
:10301000DBCFDEFFDBCFDDFF010EDB50CF6EDF50FD
:10302000CE6EE552E552E552E5CFDAFFE7CFD9FFA4
:0230300012008C
:0E303200D9CFE6FFDACFE6FFE1CFD9FFE2CF3C
:10304000DAFFE652E652FC0EDBCFDEFFDBCFDDFF20
:10305000010EDB50D76EDF50D66EE552E552E552D9
:0A306000E5CFDAFFE7CFD9FF120039
:06306A00FF0EE3501D6E95
:10307000EF0E01D0F30EE76EE72E3CEF18F00C0ECA
:103080001C6EE76AE72E42EF18F01C2E41EF18F095
:083090001D2E3AEF18F01200AA
:08309800D9CFE6FFDACFE6FF15
:1030A000E1CFD9FFE2CFDAFFACAC04D0AC900001A5
:1030B000F8B3AC80FD0EDB50AD6EE552E5CFDAFF24
:0630C000E7CFD9FF12006A
:0A30C600F36AF46AFF0EE124E96EDC
:1030D000FF0EE220EA6EED6607D02F0EEF6404D0FB
:0A30E0003A0EEF6001D0F32A12004F
:0630EA00000EF36E00EE83
:1030F00000F0080E01D81200EA6002D0EE6AFCD798
:0A310000F350E9601200EE6AFCD7FC
:06310A0013EE00F023EEBD
:1031100000F0F86A0A9CA2EC15F0B6EC18F035EC59
:063120000EF0FBD71200C7
:0A312600FF0EE350ACBA04D0AF6A0C
:10313000AB8EAC8A949CACA2FED7AD6EF36EF46AF3
:0231400012007B
:0E314200FF0EE350E84E1200000000D000D057
:0831500000D0E82EFAD71200AE
:083158003031323334353637D3
:09316000383961626364656600A0
:02316A00120051
:02316C0012004F
:020000040030CA
:0100000024DB
:010001000EF0
:010002003FBE
:010003001EDE
:010005008179
:010006008178
:010008000FE8
:01000900C036
:01000A000FE6
:01000B00E014
:01000C000FE4
:01000D0040B2
:00000001FF
