:020000040000FA
:060000005FEF19F0120091
:0600080004EF08F01200F5
:060018000CEF08F01200DD
:061000005FEF19F0120081
:061008002DEF0EF01200B6
:0610180055EF0EF012007E
:06102A0001001D3300006F
:08103000FB02000001000000BA
:0810380058EC0DF0FB0EDBCFBC
:10104000F3FFDB06F35000090AE0A6EC0DF0FA0E00
:1010500011EC0EF0F3E1151CF1E1010E01D0000ED0
:1010600087EF0DF058EC0DF03B0EE12402E3E16850
:10107000E652E16E010EDB6A020EDB6AF90EDBCF8F
:10108000F6FFFA0EDBCFF7FFFB0EDBCFF8FF080011
:10109000F550DF6EDF5002E1ABEF0CF0250EDF5CA8
:1010A00002E09EEF0CF0030EDB6A040EDB6A050E15
:1010B000DB6A060EDB6A070EDB6AC0EC0CF02D0E55
:1010C000DF5C0CE02B0EDF5C09E0200EDF5C06E04D
:1010D000230EDF5C03E0300EDF5C1AE1DF50300AE4
:1010E00014E0130A0FE0030A0AE00B0A05E0060AFF
:1010F000E4E1030EDB80E1D7030EDB82DED7030ED3
:10110000DB84DBD7030EDB86D8D7030EDB88D5D78D
:101110002A0EDF5C1BE1BCEC0CF00AEC0DF010E0D9
:10112000030EDB8006680768130EDBCF0DF0140E8C
:10113000DBCF0EF022EC18F0040E04C0DBFF03D06E
:10114000130EF3EC0CF0C0EC0CF00BD0090EDB6AC4
:1011500061EC0DF003E0D5EC0DF0FAD7090EF3ECDD
:101160000CF0030EDBB0DB982E0EDF5C1BE1C0EC55
:101170000CF02A0EDF5C0BE1BCEC0CF00AEC0DF07D
:1011800003E1130E45EC0DF0C0EC0CF00BD0090E92
:10119000DB6A61EC0DF003E0D5EC0DF0FAD7090E37
:1011A00045EC0DF0680EDF5C07E1C0EC0CF0680E5A
:1011B000DF5C1DE1030E18D0740EDF5C17E07A0EC1
:1011C000DF5C14E0480EDF5C06E0540EDF5C03E0F9
:1011D0005A0EDF5C02E1020E07D06C0EDF5C03E00A
:1011E0006A0EDF5C04E1010E98EC0DF0C9DBDF5004
:1011F0006E0A01E17FD31E0A01E192D1200A01E1CA
:101200008FD13F0A01E149D11A0A01E146D10D0A05
:1012100001E143D1200A01E140D13A0A01E13DD187
:10122000200A01E13AD1260A01E135D10D0A01E196
:1012300032D11A0A01E1D9D0200A4AE0300A1FE06F
:10124000460A0EE0250A01E083D3D950F90FE96E72
:10125000FF0EDA20EA6E010EEE5E000EEE5AEE5A36
:10126000A6EC0DF0250EE66E95DB03E1151C01E101
:1012700069D3A2EC0DF001E26BD3DB2A69D3080E2F
:10128000DB6A040EDB50010806E2040EDB046AECA4
:101290000DF0DB508BDB080EDB5009E0030EDB505A
:1012A000010B05E172DB01E04DD3080EDB6A64DB64
:1012B000EFCFDFFF1AEC0EF003E1151C01E142D382
:1012C000A2EC0DF001E3DB2A60DB01E141D33AD36C
:1012D000070EDB5002080FE1E6EC0DF0030EADEC5B
:1012E0000DF00E0EEECFDBFF0F0EEECFDBFF100E7C
:1012F000EECFDBFF20D0F70EDBCF17F0F80EDBCF01
:1013000018F0020E175E000E185AF70E17C0DBFF1A
:10131000F80E18C0DBFF17C0E9FF18C0EAFF9DEC0C
:101320000DF0166A0E0E14C0DBFF0F0E15C0DBFFAA
:10133000100E16C0DBFF0E0EDBCFE6FF0F0EDBCF6D
:10134000E6FF100EDBCFE6FF3EEC17F0E552E5526C
:10135000E552130E05C0DBFF140E06C0DBFF060EC0
:10136000DB5005E0130EE1EC0DF001E26ADB05EC69
:101370000EF002E2130E37DBC8EC0DF006E0040EAF
:10138000E1EC0DF002E2050E2EDB030EDBB005D022
:10139000FCDA01E0D7D2080EDB6A090EDB6A0E0E1A
:1013A000DBCFF6FF0F0EDBCFF7FF100EDBCFF8FF22
:1013B0000800F550DF6EDF5014E00BEC0EF011E288
:1013C0001AEC0EF003E1151C01E1BCD2BBDB01E31A
:1013D000DB2A090EDB2AD9500E0FE96E000ECBDB9B
:1013E000E7D7D3DA01E1B4D2ADD2C6DA110EEECF2F
:1013F000DBFF120EEDCFDBFF110EDBCFE6FF120E8F
:10140000DBCFE6FF30EC17F0E552E552130EF3CFD9
:10141000DBFF140EF4CFDBFF060EDB5004E0130EEF
:10142000D0DB01E20EDB05EC0EF002E2130EDBDA9C
:10143000AFDB05E0040EC5DB02E2050ED4DA030ED5
:10144000DBB005D0A2DA01E07DD2080EDB6A090E1E
:10145000DB6A110EDBCFE9FF120EDBCFEAFFEFCF25
:10146000DFFFDF5014E0D7DB12E2E4DB03E1151C01
:1014700001E168D267DB01E3DB2A090EDB2A110EEA
:10148000DB2ADBCFE9FF120EE8E3DB2AE6D77DDAC1
:1014900001E15ED257D2030EDB8E070EDB0410E1B2
:1014A00095DB040E5ADB0A0EEECFDBFF0B0EEECF00
:1014B000DBFF0C0EEECFDBFF0D0EEECFDBFF6CD0B3
:1014C000070EDB5003082CE1030EDBAE0DD0B2DAC1
:1014D000020E76DAEFCF14F0156A166A176A14AEA8
:1014E00039D01568166835D0F70EDBCF15F0F80E39
:1014F000DBCF16F0020E155E000E165AF70E15C061
:10150000DBFFF80E16C0DBFF15C0E9FF16C0EAFFCF
:10151000EFCF14F00A0E14C0DBFF0B0EDB6A38D0DD
:10152000070EDB50020809E1030EDBAE04D059DBE5
:1015300016AE10D00ED055DB0DD0030EDBAE12D0A0
:1015400079DA020E3DDAF9DA166A176A15AE02D0B8
:1015500016681768E2DA0C0E16C0DBFF0D0E17C016
:10156000DBFF1AD0F70EDBCF16F0F80EDBCF17F04B
:10157000020E165E000E175AF70E16C0DBFFF80EAD
:1015800017C0DBFF16C0E9FF17C0EAFFD6DAC5DADD
:101590000C0EDB6A0D0EDB6A060EDB5005E1010E58
:1015A000F36E050EF3CFDBFF150EDB6A160EDB6A5A
:1015B000D950370F146E000EDA20156E390E14C094
:1015C000DBFF3A0E15C0DBFF380EDB6A080EDB6A64
:1015D0000A0EAEDADF50780A12E0200A10E0280A7C
:1015E0000CE0200A0AE03F0A06E00D0A02E0200AA9
:1015F00008E1020E05D0080E03D0080EDF26100EFB
:1016000097DA030EDBBE02D0DB92DB94DB50800B5B
:1016100024E08ADAD890030EEB50000A08E6000EA8
:10162000EE5C000EEE58000EEE58000EEE5815E27D
:1016300013DA0B680C680D680E68EAEC17F00A0EF6
:1016400000C0DBFF0B0E01C0DBFF0C0E02C0DBFF96
:101650000D0E03C0DBFF2D0E08D0030EDBA202D05F
:101660002B0E03D0DBA408D0200EF36E170EF3CFA1
:10167000DBFF150EDB2A02D0170EDB6A050EDB50EE
:1016800003E1B7D901E189D00C0E146E330E156E4B
:10169000000E166E070EDBCF17F0186A196A1A6A69
:1016A00017C00BF018C00CF019C00DF01AC00EF0E6
:1016B000D3D975EC18F014500024F36E15500120A6
:1016C000F46E16500220F86EF4CFF7FFF3CFF6FF5A
:1016D0000800090EF5CFDBFF580EDF5C0FE1610E4D
:1016E000F36E090E7BD90AE3200E146E090EDBCFD0
:1016F000E7FF1450E75E090EE7CFDBFF070EDBCFF5
:1017000014F0156A166A176A0FDA14C00BF015C0C8
:101710000CF016C00DF017C00EF0EECF04F0EECFB7
:1017200005F0EECF06F0EFCF07F075EC18F007C02C
:10173000EDFF06C0EDFF05C0EDFF04C0EFFF390E61
:10174000DBCFE9FFDB063A0EDBCFEAFF01E2DB0687
:10175000090EDBCFEFFF150EDB2A4BD995E1030E07
:10176000DBA61DD06F0EDF5C06E1C1D918E3150EB4
:10177000DB285BDA14D0780EDF5C09E0580EDF5C02
:1017800006E0620EDF5C03E0420EDF5C08E1020E61
:10179000F36E160EF3CFDBFF02D0150EDB6A030EDD
:1017A000DB50100B0EE0040EDBCF14F0050EDB5007
:1017B000D880145406E2060EDB5003E1040EDB5021
:1017C00034DA95D90AE2050EDBCFE7FF150EDB50C0
:1017D000E75E050EE7CFDBFF02D0050EDB6A040EE5
:1017E000DBCF14F0160E45D9D880145414E2160E2F
:1017F000DBCFE6FF150EDBCFE6FF040EDBCFE6FF07
:10180000050EDB50E552E75CE552D880E754E5521F
:10181000D880E7545FD9030EDB50010B0BE1080EB3
:10182000DB5008E0B2D801E08DD0080EDB50BED806
:10183000080EDB6A170EDB5007E088D9170EF1D9C6
:1018400003E1151C01E17ED0160EDB5016E07ED9B7
:10185000300EE66E9FD802E1151C74E077D9DFCF19
:10186000E6FFA8EC17F0E552E552E552F4CF15F08B
:101870000001F31C02E1151C65E0050EDBCF14F03E
:10188000160EDB50D880145409E2050EDBCFE7FFBB
:10189000160EDB50E75E050EE7CFDBFF300EE66E7F
:1018A000050ECBD94FE1390EDB2ADBCFE9FF3A0E2B
:1018B00001E3DB2ADBCFEAFF090EEFCFDBFFDB50D2
:1018C0000EE044D9090EADD902E1151C3BE0390EFA
:1018D000DB2ADBCFE9FF3A0EEDE3DB2AEBD755D865
:1018E00031E1160EDBCFE6FF080EC3D8E552E72440
:1018F0005DD82ED0070EDB50030A1CE0010A14E06D
:10190000030A07E07BD9DBCFEEFF020EDBCFEDFF52
:101910001FD0F5D8196A17AE02D0186819682CD8EC
:10192000BCD819C0EEFF14D0EAD817BE186824D866
:10193000B4D80ED063D9DBCFEFFF0AD07BD905E155
:10194000151C03E1F368F46810D0FCD801E3DB2A2E
:1019500079D947EF08F0010EDBCF14F0020EDBCF90
:1019600015F014C0F3FF15C0F4FF3B0EE15C02E27A
:10197000E16AE552E16ECBD029D9020EADEF0DF050
:1019800061D90800F550DF6E1200200EE66E080ED9
:101990001DEF0EF0A8EC17F0E552E552E552F3CF3B
:1019A00014F0F4CF15F00001F31C1200146E156A48
:1019B000D950010F4DD91450EE261550ED221200CA
:1019C000185E000E195AF70E18C0DBFFF80E19C08A
:1019D000DBFF18C0E9FF19C0EAFF1200DBCFF4FFFC
:1019E000F350F45C1200DB50E76E040EE7CFDBFF30
:1019F00012000A0EDBCF14F00B0EDBCF15F00C0E2D
:101A0000DBCF16F00D0EDBCF17F0145015101610AB
:101A100017101200130EEECFDBFF140EEDCFDBFF1D
:101A2000130EDBCF14F0140EDBCF15F00001800E87
:101A300015141200F70EDBCF18F0F80EDBCF19F0FB
:101A40001200050EDB50E66ED950130F01D9E55296
:101A5000E750EE6EED6A12000A0EDBCF04F00B0EBB
:101A6000DBCF05F00C0EDBCF06F00D0EDBCF07F061
:101A70001200DBCFE6FF150EDBCFE6FF050EDB50D5
:101A8000E552E724E552E7241200DB50CED8010EE0
:101A9000F36E060EF3CFDBFF1200EE50EFCFEAFF3E
:101AA000E96E16C0EEFF17C0EEFF18C0EEFF120081
:101AB000D9CFE6FFDACFE6FFE1CFD9FFE2CFDAFFF9
:101AC0001200DFCFE6FFE66A3DEC19F0E552E55281
:101AD000F3501200E76E080EE7CFDBFF1200EECFE7
:101AE00014F0EECF15F0EFCF16F0176A1200050EC6
:101AF000DBCF14F0150EDB50D88014541200010E09
:101B0000DBCF16F0020EDBCF17F0186A1200E55299
:101B1000E5CFDAFFE7CFD9FF12000A0E14C0DBFFD2
:101B20000B0E15C0DBFF1200D9500A0F28EF0EF084
:101B3000F36E070EF3CFDBFF1200EECF14F0EFCF02
:101B400015F01200010EDB2A020E1200FC0EDBCF94
:101B5000E6FFFD0EDBCFE6FF1200145E000E155A05
:101B6000F70E14C0DBFFF80E15C0DBFF14C0E9FF51
:101B700015C0EAFF1200DA20EA6EEF2AEECFF6FF78
:101B8000000EEF22EECFF7FFEF22EECFF8FF1200AC
:101B9000040EDBCFE6FF130EDB50E552E75C9ADF65
:101BA000DB5004DF060EDB501200090EDB500A0D7D
:101BB000F350DF24D00FE76E090EE7CFDBFFC0EF55
:101BC0000CF0DB50F36E050EEEEF0CF0F70EDBCFF2
:101BD00014F0F80EDBCF15F01200DFCFE6FFCAEFEE
:101BE0000CF028DF030EECDE6FEF0DF01CEC08F0BC
:101BF000E552E552E552E55200091200BDDEEE5015
:101C0000EFCFEAFFE96E010E1200130EDB50F36E08
:101C1000040EEEEF0CF0040EDB50F36E090EEEEF47
:101C20000CF0DBCFE6FFCAEF0CF0E76E050EE7CF56
:101C3000DBFF12008BDFEDEF0DF0DBCFE6FF86DF81
:101C4000F6EF0DF0D950F90FE96EFF0EBBEF0DF076
:0A1C5000E96E000EDA20EA6E1200C1
:061C5A00C9DB00EE00F002
:101C6000140EE80403E3EECFE4FFFBD700EE14F01C
:101C7000070EE80403E3EECFE4FFFBD7E652F29E43
:101C800085D8F28EE55200EE1AF0070EE80403E361
:101C9000E5CFEDFFFBD700EE13F0140EE80403E3ED
:101CA000E5CFEDFFFBD7C5DB1100D8CFE4FFE0CFD8
:101CB000E4FFE46E9CDB00EE00F0140EE80403E3A6
:101CC000EECFE4FFFBD700EE14F0070EE80403E3C9
:101CD000EECFE4FFFBD7E6528088F40EE66E2A0EC4
:101CE00079EC12F0E55200EE1AF0070EE80403E377
:101CF000E5CFEDFFFBD700EE13F0140EE80403E38D
:101D0000E5CFEDFFFBD795DBE550E5CFE0FFE5CF75
:101D1000D8FF100002D834D8FED70F0EC112929807
:101D2000929A9386938892908098809A8090850E5C
:101D3000D56EFD0ECD6E9E0ECA6E4D0EE66EE66A37
:101D40006C0EE66E63EC17F0E552E552E552D09E5C
:101D5000F28EF28CDDEC12F0E66A040EE66E000EF6
:101D6000E66E030EE66EE2EC12F0C0EC12F0100E1E
:101D7000E66E83EC15F0E5520001010EE06F1200F3
:101D800080988090D5D8F0D889EF10F075DB1B0EC5
:101D9000E1269EAAC6D0190EDB6A1A0EDB6A1BDB8F
:101DA000EE50ED1001E1BDD0D9CFE9FFDACFEAFF67
:101DB000FF0EEE1804E1FF0EED1801E1B2D0110E96
:101DC000DB6AD950030F146E7CDBD9500F0FE96E1C
:101DD000DACFEAFF200EEE6E010EED6E150EDB6A15
:101DE000160EDB6A130EDB6A140EDB6A120EDB6A58
:101DF000020EDB6ADBCF14F0DECF15F0DDCF16F07C
:101E00001550145C000E165401E378D080DA0D08EA
:101E100003E07DDA0A0821E1D950150FE96EDACF27
:101E2000EAFF000ED880EE54000EED5401E379D0A5
:101E30002CDB09E11750151806E17EDBD00E166E7B
:101E40002A0EB8DA55D02FDB01E3DB2A7EDADACFAF
:101E500015F037DB30DB64D946D0110EDB5011E1D1
:101E600056DA480808E053DA4C0805E065DBA20EB4
:101E7000166E2A0E34D0010EF36E110EF3CFDBFF77
:101E80003AD0110EDB0437E142DA2C0812E1110ED0
:101E9000DB6AFBDA08E11750151805E14DDBD00EBF
:101EA000166E2A0E1CD0FFDA01E3DB2A4EDA09DBBC
:101EB00022D0300E146E2BDAD88014540CE327DABB
:101EC000390809E324DAE66EEEDA01E3DB2AE552AB
:101ED000E750EF6E10D030DB770E166E2A0E6ADAFE
:101EE000E552E552E8DACA0EE66E2A0EE66EBBD877
:101EF000E552E55216D0020EDB2A7CD746DBD950DC
:101F0000190FE96EDACFEAFF1450EE261550ED22D4
:101F100062DAFF0EEE1801E06BD7FF0EED1801E05C
:101F200067D71B0EE15C02E2E16AE552E16EA9D2DD
:101F30008150E66E98EC15F0E552F7EC15F0100BB9
:101F400007E00001E05102E0000E01D0010EE06F59
:101F50000001E051E8B0808AE8A0809A9EA203D0F8
:101F60009E92E4EC15F0120087DA080EE1260001DB
:101F7000E05172E081B670D06FDAF294020EDB6A43
:101F8000060EDB6A070EDB6A040EDB6A050EDB6AEF
:101F9000030EDB6A030EDB5050E1020EDB5002E061
:101FA000000E01D0010EE8B08088E8A08098C7DA62
:101FB000F250040B0EE1E9DA166A1634000E161818
:101FC00007E6D880600E1454EA0E1554000E16541D
:101FD0000BE2600EDE6EEA0EDD6EF294010EF36E21
:101FE000030EF3CFDBFF09D08150080B01E0010E97
:101FF000146E020EDB50145CDAE02EDAD950040FB6
:1020000088DAD950060F85DADECFE6FFDDCFE6FFAE
:102010009DDA146E030EDBCFE7FF1550E726030EA3
:10202000E7CFDBFF020EDB5002E0000E01D0010E15
:10203000E76E020EE7CFDBFFADD78098060EDBCF51
:10204000E6FF070E8ADAAED907E06D0EE66E2A0EBD
:10205000E66E09D8E552E552080EE15C02E2E16A5B
:10206000E552E16E0ED208DA090EE126070EDB6AB0
:10207000080EDB6A6C0EE66E2A0E3BDA29DAC0D84F
:10208000E552E552010EF36E020E3CDA030EDB6AF6
:10209000040EDB6A87D936E0D950030FE5D943DA5D
:1020A000FF0EEE1806E1FF0EED1803E17BD925E1E6
:1020B00029D0DECFE6FFDDCFE6FF020EDB5002E0E7
:1020C000480E01D04C0EE66EE66AD950070F21DAB1
:1020D000650E146E2A0E60D911DA020EDB5002E092
:1020E000000E01D0010EE76E020EE7CFDBFF2C0ED3
:1020F000F36E070EF3CFDBFFCDD7620E146E2A0E00
:1021000049DA54DA090EE15C02E2E16AE552E16E75
:10211000B8D1F1EC15F0100B01E1120090EF10F0C6
:10212000ABD9090EE12698D9F294010EF36E040E94
:10213000E9D9070EDB6A080EDB6AD950070F94D97C
:10214000020EF3CFDBFF030EF4CFDBFFD950020FFB
:10215000E96EDACFEAFFFF0EEE1803E1FF0EED188D
:102160003BE0020EDBCF14F0030EDBCF15F0166A56
:10217000600E141805E1EA0E151802E116502CE065
:10218000040EDB50E8B08088E8A08098040EDB5095
:10219000E8B08080E8A0809056D83ED905E28098CB
:1021A00080905CD839D9ECE357D9040EDB5002E0BB
:1021B000000E01D0010EE76E040EE7CFDBFFDB500F
:1021C000E8B08088E8A08098040EDB50E8B08080FA
:1021D000E8B0B3D78090B1D7780EE66E0FEC19F067
:1021E000E552809880905D0EE66E2A0E82D9809826
:1021F0008090090EE15C02E2E16AE552E16E41D1B4
:102200003BD933D8F350F41012E0FD0EDBCF14F0BD
:10221000FE0EDBCF15F0166A14C0E6FF15C0E6FF10
:1022200016C0E6FF7BD917EC17F0176EBFD929D17E
:1022300023D9B8D807E04CD961D917D8F4CF15F015
:10224000F350F4101ED10A0EE66E7BEC19F0E55245
:10225000000000000000000000001200150EE66EF5
:102260007BEC19F0E55200001200000EE66EE66A03
:10227000D7EC18F0E552E5529E909EB005D0ACA286
:10228000FCD7010EF36E01D0F36AF46A1200F4D8A1
:10229000E652DF6ADFCF14F0FB0EDBCF15F0FC0E49
:1022A000DBCF16F01550145C000E165411E29EAAF6
:1022B0000FD099EC18F0E66EDF50E76EFD0EDBCF25
:1022C000E9FFFE0E51D9E552E750EF6EDF2AE2D763
:1022D000ABA20FD004D92D0E146E2A0E4CD9AB9898
:1022E000AB88FDD8FA0E146E290E45D9F368F46850
:1022F00005D0DF50156AF36E15C0F4FFE552C1D06A
:10230000BBD8E6D84FEC18F0E552E552BAD0020E31
:10231000DB50E76E0F0EDBCFE9FF100E25D9EF5033
:102320001200E66EE66A020EDB50E76E190EDBCF96
:1023300014F01A0EDBCF15F0E7501426000E15220C
:1023400014C0E6FF15C0E6FF1200EF6AD950030F74
:10235000E0D8FDEC15F0E552E552170EF3CFDBFFA8
:10236000180EF4CFDBFFD950130FD3D8D950150F67
:10237000D0D8170EDBCFE6FF180EDBCFE6FFE6D88E
:10238000120EDBCFE7FF1550E726120EE7CFDBFF7B
:10239000D950030F146E1200FDD80B0EE15E1750DA
:1023A0008EEF12F062DFF3CF14F0F4CF15F0F3509C
:1023B000F4101200176E186A16C0E6FFE66E18C019
:1023C000E6FFACD872EC16F0196E090EE15E1950FA
:1023D000A5D818EF11F0D00EE66E010EE66E200EB5
:1023E000E66E010EE66E53DFCBD893EF12F0DACF34
:1023F000E4FFE2CFDAFFE9CFE4FFEACFE4FFF6CF74
:10240000E4FFF7CFE4FFF5CFE4FFF3CFE4FFF4CF31
:10241000E4FFFACFE4FF120092D8B7D8020EDBCF68
:1024200016F0030EDBCF17F01650145C175015583A
:102430001200E5CFFAFFE5CFF4FFE5CFF3FFE5CFDC
:10244000F5FFE5CFF7FFE5CFF6FFE5CFEAFFE5CFF4
:10245000E9FFE5CFDAFF1200000EE66EE66AF3EC64
:1024600018F0E552E552120054D8D950050F51D852
:1024700001EC13F0C0EF12F0D9CFE6FFE1CFD9FFA6
:102480001200E552E7CFD9FF12000D0EDBCF14F09A
:102490000E0EDBCF15F0D950030F166EDACF17F002
:1024A000E850141812000D0EDBCFE9FFDB2A0E0EE8
:1024B000DBCFEAFF1200150EDBCFE6FF160EADEF05
:1024C00012F00D0E14C0DBFF0E0EDACFDBFF120090
:1024D000FD0EDBCFE6FFFE0EDBCFE6FF1200DFCF07
:1024E000E6FFE66A9E50E66EE66AAB50E66EE66A86
:1024F0001200E66E85DEE552E552120001DFE5527C
:10250000E5521200F3CFDBFF050EDB6A060EDB6A35
:102510001200E66E000EDA20E66E1200600EE66E25
:10252000000EE66E1200F3CFDEFFF4CFDDFFD9CF51
:10253000E9FFDACFEAFF1200EADE91EF11F0B8EC22
:1025400018F0F3CFDEFFF4CFDDFF120080EC13F0C4
:10255000156E060EE15E15501200DBCFE6FFD0ECE3
:1025600013F0E552E5521200DBCFEAFFE750E9260F
:10257000000EEA22120010DF5BDEE552E552120087
:10258000E552E552E552E5521200DECF14F0DDCF00
:1025900015F01200156E166A14C0E6FFE66E16C03E
:1025A000E6FFBCDF72EC16F0176E1200050EE15E5E
:0A25B0001750B4DFA3DFD2EF11F0E3
:0625BA000001F56BF66B59
:1025C000F76B12008CD90001F55150D9FD0EDBCF0D
:1025D000EEFFFE0EDBCFEDFFF55148D9FFD9FB0E24
:1025E000DBCFEEFFFC0EDBCFEDFFF52BFB0EDBCFE1
:1025F00006F0FC0EDBCF07F00650F6270750F72356
:1026000073D16DD9040EE126D4D9C7D9010E97D95B
:10261000E1D8E552E552E76E010EE7CFDBFF68D95E
:10262000020E14C0DBFF030E17C0DBFF18D9B5D9AB
:10263000020E1426000E15226ED94DE3020EDBCFDA
:1026400006F0030EDBCF07F0E868061802E1E86841
:10265000071841E0FD0E061802E1E868071820E0BF
:10266000FE0E061802E1E86807180CE09BD9FE0E82
:10267000EE1834E1FF0EED1831E1F1D8EE2A000E2C
:10268000EF220AD0B0D995D94CD9FE0EEE6EED6886
:10269000E6D883D940D91FE3DF50146E156A25D0E0
:1026A000A2D987D9EE2A000EEF22D9D806D9E76E33
:1026B000010EE7CFDBFFD3D834D9FD0EEE6EED6807
:1026C000DBCFE9FFFE0EDBCFEAFF67D924D903E3B6
:1026D000010E0ED90AD0F368F4680BD084D9020E2B
:1026E000DBCF14F0030EDBCF15F014C0F3FF15C0E1
:1026F000F4FF040EE15C02E2E16AE552E16EF4D01F
:10270000EED8040EE126C1D843D9FED803E3BDD8E4
:10271000FE0E02D0BAD8FD0EEE6EED686BD91450E5
:10272000DF1803E11550DE52DD1811E063D90FD92F
:1027300061D9FF0E1416000E1516030E14C0DBFF30
:1027400084D822E19DD8020E80D81EE199D8DCD829
:1027500004E3FD0E7AD81AE017D0FD0EFE0EDBCF93
:1027600015F0F5D8FF0EE76EFD0EDBCF14F0FE0E70
:10277000E7501416156A030E14C0DBFF66D804E197
:102780007FD8020E62D802E0010E01D079D8146E13
:10279000040EE15C02E2E16AE552E16E1450A4D05D
:1027A0009ED8020EE76E78D8E7501426000E152248
:1027B000B2D80FE3E668FD0EDBCFE6FFFE0EDBCFFF
:1027C000E6FF00D9E668010EE76E66D8E750B7D895
:1027D000F9D88AD084D8C2D8A9D808E207D903E2A8
:1027E000EDD8D6D803D0EAD85ED8F6D7BED802E165
:1027F000FF0E03D051D8C0D8EF50146E030EE15C29
:1028000002E2E16AE552E16E14506ED068D8A6D8B3
:102810008DD808E2EBD803E2D1D8BAD803D0CED80D
:1028200042D8F6D7A2D802E1010E06D035D8A4D8F6
:10283000FC0EDBCFEFFF000E146E030EE15C02E234
:10284000E16AE552E16E14504FD0DBCFE6FFAAD823
:10285000EECFE6FFEFCFE6FFB5D800091200FD0E80
:10286000DBCFE9FFFE0EDBCFEAFF1200040DF3CF52
:10287000E9FFF4CFEAFFE10EE926000EEA2212009A
:1028800091D8EE2A000EEF221200F90EDBCFE9FFFD
:10289000FA0EDBCFEAFF1200FD0EDBCF14F0FE0EC6
:1028A000DBCF15F012009AD878D891D81450EE5E8C
:1028B0001550ED5A020EDB2A1200EECFE6FFEFCFE5
:1028C000E6FF88DFE552E552120088D8EECF16F019
:1028D000EFCF17F01650145C175015581200D9CFCF
:1028E000E6FFE1CFD9FF1200E552E7CFD9FF120092
:1028F000DBCF16F016C017F0166ADF500001161075
:10290000146E17C015F0120062D8FF0ED880EE5476
:10291000000EED54120000011450F65D1550F759E9
:102920001200EE2A000EEF22D2EF14F00001F55152
:10293000F36E020EDBCFF4FFF350F45C12001426AA
:10294000000E152214C0E6FF15C0E6FF120015C0E8
:1029500014F0156A020E14C0DBFF1200030EE1260C
:10296000DE6ADD6A020EDB6A1200D9CFE9FFDACF38
:10297000EAFFEE50ED101200DE501424E96EDD5037
:102980001520EA6E1200020EEE26000EED22120055
:10299000EECFDEFFEDCFDDFF1200EECF14F0EFCF74
:1029A00015F01200FB0EDBCFE9FFFC0EDBCFEAFFD8
:1029B000120055DF82DFDF6E2FEF14F0020EDB50C6
:1029C00036EF14F023DFE552E552E5521200D950FC
:1029D000FD0FE96EFF0EDA20EA6E1200020EE92604
:1029E000000EEA2212003BDFC3EF14F055DFE6DFF2
:0A29F00065EF14F04ADFCDEF14F09C
:0629FA007265636F766553
:102A000072793A206F76657272756E212052435347
:102A100054413A30782530327820504952313A309A
:102A2000782530327820693A25640D0A0065727283
:102A30006F723A206F76657272756E212052435321
:102A400054413A30782530327820504952313A306A
:102A5000782530327820693A25640D0A004F4B0DF5
:102A60000A000D0A00257325632575000072656351
:102A700065697665642C0070617273652065727299
:102A80006F722E206E65656420272C27206F7220C0
:102A90006E756D6265722E205B25642C25635D0D5D
:102AA0000A007061727365206572726F722E206EFB
:102AB00065656420274827206F7220274C272E2029
:102AC0005B25642C25635D0D0A006563686F2C002F
:102AD0007061727365206572726F722E206E65650B
:102AE00064206E756D6265722E205B25642C2563F3
:102AF0005D0D0A006C6F7720696E74657272757077
:052B000074210D0A0024
:0A2B0600D9CFE6FFE1CFD9FFFE0EA4
:102B1000DBCF01F10101006B026B036B046B056BF2
:102B2000066B076B086B096BE552E7CFD9FF120004
:102B3000D9CFE6FFE1CFD9FF030EE12600C1DFFFC9
:102B4000FE0EDB1C01010115006FDF500019E76E5E
:102B5000010EE7CFDBFFDB500015036F010EDBCF6B
:102B6000E6FF001DE552E714026F005103E1086B18
:102B7000096B1CD0880E085D130E095909E3075133
:102B800005E1010E076F00C106F114D0066B12D0EB
:102B9000D00E085D070E095909E3055105E1010E44
:102BA000056F00C104F106D0046B04D0046B056B03
:102BB000066B076B030EE15C02E2E16AE552E16E2F
:102BC000E552E7CFD9FF12000101FF0E085DFF0EAD
:102BD000095903E2082B000E0923120001010051DC
:102BE0001200010102511200010103511200010102
:0A2BF0000451120001010651120009
:062BFA00FF0EE3CFEAFF2D
:102C0000E552FF0EE3CFE9FFE552E66AE66AD9CF67
:102C1000E6FFDACFE6FFFC0EE124D96EFF0EE220DC
:102C2000DA6EE66AE66AE66A200EEF5C06E0090EF6
:102C3000EF5C03E0EF6603D03FD0EE50F5D72D0EEA
:102C4000EF5C03E1FF0EE32A03D02B0EEF5C01E102
:102C5000EE502F0EEF6424D03A0EEF6021D0D890C2
:102C6000F90EE336FA0EE336FD0EDECFE3FFFE0E7D
:102C7000DDCFE3FFD890F90EE336FA0EE336D890B5
:102C8000F90EE336FA0EE336FD0EE350DE26FE0EB5
:102C9000E350DD22300EEE5CDE26000EDD22D9D7B9
:102CA000FF0EE3CFE8FFE85207E0F90EE31EE32A48
:102CB000FA0ED8B4E306E31EE552E552E552FF0EE4
:102CC000E3CFDAFFE552FF0EE3CFD9FFE552E1CFC4
:102CD000E9FFE2CFEAFFED52ED52EECFF3FFEFCF87
:042CE000F4FF1200EB
:0C2CE400D9CFE6FFDACFE6FFE1CFD9FF41
:102CF000E2CFDAFFE652E652E652E652D950F90F39
:102D0000146EFF0EDA20156E020E14C0DBFF030EE8
:102D100015C0DBFF020EDBCFE6FF030EDBCFE6FFC5
:102D2000F90EDBCFE6FFFA0EDBCFE6FFFB0EDBCFC3
:102D3000E6FFD950FC0FE66EFF0EDA20E66E32ECAD
:102D400008F0146E070EE15C02E2E16AE552E16E02
:102D50001450F3CFDEFFF4CFDDFFFC0EDBCFE9FF35
:102D6000FD0EDBCFEAFFEF6ADECF14F0DDCF15F00A
:102D700014C0F3FF15C0F4FF040EE15C02E2E16A47
:102D8000E552E16EE552E5CFDAFFE7CFD9FF120059
:102D90002A0EF66E100EF76E000EF86E0201090094
:102DA000F550F56F0900F550F66F03E1F56701D0B6
:102DB0003DD00900F550F06F0900F550F16F0900A2
:102DC000F550F26F09000900F550E96E0900F55061
:102DD000EA6E090009000900F550F36F0900F5508B
:102DE000F46F09000900F6CFF7F2F7CFF8F2F8CF49
:102DF000F9F2F0C2F6FFF1C2F7FFF2C2F8FF0201EA
:102E0000F35302E1F45307E00900F550EE6EF307C7
:102E1000F8E2F407F9D7F7C2F6FFF8C2F7FFF9C2F4
:0E2E2000F8FF0201F507000EF65BBFD71200A7
:022E2E00FB0E99
:102E3000E3CFF6FFFC0EE3CFF7FFFD0EE3CFF8FF85
:102E4000FE0EE3CFE9FFFF0EE3CFEAFFE9CFF3FF8A
:102E5000EACFF4FF0900F5CFEFFFEE66FBD71200D3
:102E6000FE0EE3CFE9FFFF0EE3CFEAFFF36AF46A59
:102E7000EE5203E0F34AF42AFBD71200FF0EE3CF31
:102E8000F8FFE552FF0EE3CFF7FFE552FF0EE3CF69
:102E9000F6FFE552E66AE66AE66A0900F55209E0DD
:102EA000FD0EE32A05E1FE0EE32A02E1FF0EE32A0E
:102EB000F4D7FD0EE3CF05F0FE0EE3CF06F0FF0ED4
:062EC000E3CF07F0120051
:0A2EC600D9CFE6FFDACFE6FFE1CF37
:102ED000D9FFE2CFDAFFAC6AAB6AFD0EDBB0AC889B
:102EE000DBA202D0AC8CAB8CDBB4AC8EDBA602D008
:102EF000AB8801D0AB8ADBB8AC849E98DBBAAB86DA
:102F0000DBAC02D09D8A01D09D9A9E9ADBAE02D0A6
:102F10009D8801D09D98FB0EDB50AF6EFB0EFC0E22
:102F2000DBCF15F015C014F0156A1450B06EAC8AE2
:102F3000AB8E949C948EAC50100B04E0AC50800B84
:102F400001E1948CE552E5CFDAFFE7CFD9FF12001B
:102F5000D9CFE6FFDACFE6FFE1CFD9FFE2CFDAFF44
:102F6000FB0EDBCF14F0FC0EDBCF15F00001800E62
:102F700015141AE1FB0EDBCFE9FFFC0EDBCFEAFFF5
:102F8000EECFF3FFEDCFF4FFEE2A000EEF22F3CFEA
:102F9000E9FFF4CFEAFFFD0EDBCFEFFFEF50156A3C
:102FA000F36E15C0F4FF10D0FB0EDB50FE0806E1F7
:102FB000FD0EDBCFE6FF6DEC19F005D0FD0EDBCF8B
:102FC000E6FF8FEC19F0E552E552E5CFDAFFE7CFE7
:042FD000D9FF120013
:0C2FD40004500B02F3CF00F0F4CF01F02A
:102FE0000C02F3500126000EF420026E04500D0274
:102FF000F3500226000EF420036E04500E02F3502C
:10300000032605500B02F3500126F4500222000E55
:10301000032205500C02F3500226F45003220550FF
:103020000D02F350032606500B02F3500226F45013
:10303000032206500C02F350032607500B02F350F4
:043040000326120051
:0C30440007C013F006C012F006500D0289
:10305000F4CF05F0F3CF04F007500E02F4CF07F0E1
:10306000F3CF06F00D02F3500526F4500622E86A6D
:10307000072212500E02F3500526F4500622E86A89
:1030800007220EAE48EF18F01250065E1350075A92
:0E30900013AE000C0D50065E0E50075A000CD9
:02309E00D9CF88
:1030A000E6FFDACFE6FFE1CFD9FFE2CFDAFFACA24D
:1030B000FED7FC0EDBCFE9FFFD0EDBCFEAFFEF50C2
:1030C000E66E26EC19F0E552FC0EDBCFE9FFDB2AB9
:1030D000FD0EDBCFEAFF01E3DB2AEF50E8E1E5522A
:0A30E000E5CFDAFFE7CFD9FF1200B9
:0630EA00036A026A016A9C
:1030F000006A200EE76ED89004360536063607368D
:1031000000360136023603360B50005C0C50015875
:103110000D5002580E50035809E30B50005E0C503E
:10312000015A0D50025A0E50035A042AE72EE4D7D2
:0231300012008B
:0E313200D9CFE6FFDACFE6FFE1CFD9FFE2CF3B
:10314000DAFFE652F20E0201FA17ABAC03D0FA91A5
:10315000ABB0FA81ABB4FA85ABB2FA87AE50DF6E92
:10316000DF50E552E552E5CFDAFFE7CFD9FF120095
:10317000D9CFE6FFDACFE6FFE1CFD9FFE2CFDAFF22
:10318000E652E652D650DF6E010ED7CFDBFFDECF20
:1031900014F0DDCF15F014C0F3FF15C0F4FFE552B5
:0E31A000E552E552E5CFDAFFE7CFD9FF120086
:0231AE00D9CF77
:1031B000E6FFDACFE6FFE1CFD9FFE2CFDAFFE65252
:1031C000E652FC0EDBCFDEFFDBCFDDFF010EDB5076
:1031D000CF6EDF50CE6EE552E552E552E5CFDAFF15
:0631E000E7CFD9FF120049
:0A31E600D9CFE6FFDACFE6FFE1CF14
:1031F000D9FFE2CFDAFFE652E652FC0EDBCFDEFF6C
:10320000DBCFDDFF010EDB50D76EDF50D66EE5520F
:0E321000E552E552E5CFDAFFE7CFD9FF120015
:02321E00FF0EA1
:10322000E3501C6EEF0E01D0F30EE76EE72E16EFA3
:1032300019F00C0E1B6EE76AE72E1CEF19F01B2E1F
:0C3240001BEF19F01C2E14EF19F0120007
:04324C00D9CFE6FFF1
:10325000DACFE6FFE1CFD9FFE2CFDAFFACAC04D0A2
:10326000AC900201FAB3AC80FD0EDB50AD6EE552BE
:0A327000E5CFDAFFE7CFD9FF120027
:06327A00F36AF46AFF0E86
:10328000E124E96EFF0EE220EA6EED6607D02F0E14
:0E329000EF6404D03A0EEF6001D0F32A120072
:02329E00000E20
:1032A000F36E00EE00F0080E01D81200EA6002D0C2
:0E32B000EE6AFCD7F350E9601200EE6AFCD71C
:0232BE0017EE09
:1032C00000F027EE00F0F86A0A9CC8EC16F090ECCB
:0A32D00019F08AEC0EF0FBD7120093
:0632DA00FF0EE350ACBA48
:1032E00004D0AF6AAB8EAC8A949CACA2FED7AD6E14
:0632F000F36EF46A120007
:0A32F600FF0EE350E84E1200000046
:0C33000000D000D000D0E82EFAD7120058
:04330C0030313233F7
:0D3310003435363738396162636465660014
:01331D0000AF
:02331E0012009B
:02332000120099
:020000040030CA
:0100000024DB
:010001000EF0
:010002003FBE
:010003001EDE
:010005008179
:010006008178
:010008000FE8
:01000900C036
:01000A000FE6
:01000B00E014
:01000C000FE4
:01000D0040B2
:00000001FF
